:1000000002C100000C94F31E0C94C81E0C949D1E9B
:100010000C94721E0C94471E0C941C1E0C94F11D23
:100020000C94C61D21C100001FC100001DC10000AD
:100030001BC1000019C1000017C1000015C100005C
:1000400013C1000011C100000FC100000DC100006C
:100050000BC1000009C1000007C100000C947C1D09
:1000600003C100000C94461D0C941C1DFDC0000033
:10007000FBC00000F9C00000F7C00000F5C00000A0
:10008000F3C00000F1C00000EFC00000EDC00000B0
:10009000EBC00000E9C00000E7C000000C941E1F88
:1000A000E3C00000E1C00000DFC00000DDC00000D0
:1000B000DBC00000D9C00000D7C00000D5C00000E0
:1000C000D3C00000D1C00000CFC00000CDC00000F0
:1000D000CBC00000C9C00000C7C00000C5C0000000
:1000E000C3C0000000002100240027002A002D00CA
:1000F0003000330001010000040107010A01000083
:100100002200250028002B002E00310034000201BF
:100110000000050108010B0100000A0B02090C0D8B
:100120000E080703040100000000000000000000AA
:1001300000000000000000000000000000000000BF
:10014000000000001211100000000000000000007C
:10015000000000000000000000000000000000009F
:1001600020002300260029002C002F00320000016F
:10017000000003010601090105050505070508083A
:100180000808020202020A0A080804040404010121
:100190000101010101010303030303030303040736
:1001A00007070C0C0C0C0C0C0C0C020202020606CD
:1001B0000606060606060B0B0B0B0B0B0B0B0102C0
:1001C0001020200808102040102040800201020169
:1001D0000804020101020408102040808040201021
:1001E000080402018004020180402010080402017A
:1001F00008040201010204081020408001020408E2
:1002000010204080422011241FBECFEFD1E2DEBF7C
:10021000CDBF00E00CBF1CE0A0E0B2E0E8E1F5E6F5
:1002200000E00BBF02C007900D92A234B107D9F7CE
:100230002EE0A2E4BCE001C01D92A036B207E1F7B7
:1002400011E0C3E0D1E000E006C021970109802F52
:10025000FE010E946E32C230D10780E00807A9F784
:100260000E9471210C948A32CBCEDC01ED91FC917D
:100270000190F081E02D1994AF92BF92CF92DF925E
:10028000EF92FF920F931F93CF93DF936C017B014B
:100290008B01040F151FEB015E01AE18BF08C017DC
:1002A000D10759F06991D601ED91FC910190F0814F
:1002B000E02DC6011995892B79F7C501DF91CF9102
:1002C0001F910F91FF90EF90DF90CF90BF90AF9074
:1002D0000895FC01538D448D252F30E0842F90E04C
:1002E000821B930B541710F0CF9608950197089531
:1002F000FC01918D828D981761F0A28DAE0FBF2FFA
:10030000B11D5D968C91928D9F5F9F73928F90E04F
:1003100008958FEF9FEF0895FC01918D828D9817BE
:1003200031F0828DE80FF11D858D90E008958FEFFB
:100330009FEF0895FC01918D228D892F90E0805CC4
:100340009F4F821B91098F73992708958DE69DE039
:10035000F1DF21E0892B09F420E0822F0895FC01D0
:10036000A48DA80FB92FB11DA35ABF4F2C91848D16
:1003700090E001968F739927848FA689B7892C9373
:10038000A089B1898C91837080648C93938D848DC6
:10039000981306C00288F389E02D80818F7D8083C9
:1003A0000895EF92FF920F931F93CF93DF93EC0189
:1003B00081E0888F9B8D8C8D98131AC0E889F9890C
:1003C000808185FF15C09FB7F894EE89FF8960830F
:1003D000E889F98980818370806480839FBF81E090
:1003E00090E0DF91CF911F910F91FF90EF900895D2
:1003F000F62E0B8D10E00F5F1F4F0F731127E02EAD
:100400008C8D8E110BC00FB607FCFACFE889F989E5
:10041000808185FFF5CFCE01A2DFF2CFEB8DEC0F0F
:10042000FD2FF11DE35AFF4FF0829FB7F8940B8F19
:10043000EA89FB8980818062D0CFCF93DF93EC0182
:10044000888D8823B1F0AA89BB89E889F9898C91C4
:1004500085FD03C0808186FD0CC00FB607FCF7CF79
:100460008C9185FFF2CF808185FFEDCFCE0177DFC4
:10047000EACFDF91CF91089580E090E0892B21F0C1
:1004800065DF81110E94000080E090E0892B49F037
:1004900080E090E0892B29F00E94000081110E94E9
:1004A000000080E090E0892B49F080E090E0892B0B
:1004B00029F00E94000081110E94000080E090E07D
:1004C000892B49F080E090E0892B29F00E94000000
:1004D00081110C94000008958150823108F05AC0B7
:1004E000E82FF0E08827E858FD4F8F4F0C946E32CC
:1004F00098029C028A0290029402CA029F02A502FC
:10050000A902AF02B302B702BD02C102CA02C5020C
:10051000CB02CF02809180008F7780938000089576
:10052000809180008F7DF9CF80918000877FF5CF0B
:1005300084B58F7784BD089584B58F7DFBCF80917E
:10054000B0008F778093B00008958091B0008F7DC8
:10055000F9CF809190008F778093900008958091DB
:1005600090008F7DF9CF80919000877FF5CF8091AB
:10057000A0008F778093A00008958091A0008F7DC8
:10058000F9CF8091A000877FF5CF809120018F77F0
:10059000809320010895809120018F7DF9CF809173
:1005A0002001877FF5CFCF93DF93282F30E0F9012B
:1005B000E85EFE4F8491F901E254FE4FD491F901B7
:1005C000E858FE4FC491CC2399F0811185DFEC2FC0
:1005D000F0E0EE0FFF1FE25AFE4FA591B491EC91AF
:1005E000ED2381E090E009F480E0DF91CF91089560
:1005F00080E090E0FACF1F93CF93DF93282F30E075
:10060000F901E85EFE4F8491F901E254FE4FD49166
:10061000F901E858FE4FC491CC23A1F0162F8111A7
:100620005BDFEC2FF0E0EE0FFF1FE250FF4FA591D4
:10063000B4918FB7F894EC91111108C0D095DE23D6
:10064000DC938FBFDF91CF911F910895DE2BF8CF00
:10065000CF93DF9390E0FC01E254FE4F2491885841
:100660009E4FFC0184918823C9F090E0880F991F68
:10067000FC01EC51FF4FA591B491FC01E250FF4FFA
:10068000C591D49161110DC09FB7F8948C912095BC
:1006900082238C938881282328839FBFDF91CF9169
:1006A0000895623051F49FB7F8943C91822F809561
:1006B00083238C93E8812E2BEFCF8FB7F894EC91A6
:1006C0002E2B2C938FBFEACFCF93DF93EC0161E009
:1006D00085E0BEDF209729F460E085E0DF91CF91CF
:1006E0008ACFCF3FD10511F461E0F7CFEDE1F1E022
:1006F000E491E150E23108F0B2C0F0E08827EC5715
:10070000FC4F8F4F0C946E3296039D03A203AC03F3
:10071000B6032F04C003C803D003DA03E403EE03D7
:10072000FD0307042F0411041B04250484B580680D
:1007300084BDC7BDDF91CF91089584B5806284BD2B
:10074000C8BDF8CF80918000806880938000D093EE
:100750008900C0938800EECF8091800080628093F2
:100760008000D0938B00C0938A00E4CF80918000FA
:10077000886080938000D0938D00C0938C00DACF86
:100780008091B00080688093B000C093B300D2CF56
:100790008091B00080628093B000C093B400CACF53
:1007A00080919000806880939000D0939900C093CE
:1007B0009800C0CF80919000806280939000D09389
:1007C0009B00C0939A00B6CF809190008860809380
:1007D0009000D0939D00C0939C00ACCF8091A0006E
:1007E00080688093A0008091A0008F7B8093A00000
:1007F000D093A900C093A8009DCF8091A0008062F3
:100800008093A000D093AB00C093AA0093CF8091B7
:10081000A00088608093A000D093AD00C093AC008E
:1008200089CF80912001806880932001D093290195
:10083000C09328017FCF80912001806280932001A6
:10084000D0932B01C0932A0175CF8091200188603D
:1008500080932001D0932D01C0932C016BCFC03821
:10086000D1050CF041CF38CF3FB7F89480911E0DE1
:1008700090911F0DA091200DB091210D26B5A89B40
:1008800005C02F3F19F00196A11DB11D3FBFBA2F22
:10089000A92F982F8827BC01CD01620F711D811DE2
:1008A000911D42E0660F771F881F991F4A95D1F767
:1008B00008958F929F92AF92BF92CF92DF92EF9264
:1008C000FF926B017C01D0DF4B015C01C114D104AC
:1008D000E104F104B1F0C8DF681979098A099B09BC
:1008E000683E73408105910588F321E0C21AD10862
:1008F000E108F10888EE880E83E0981EA11CB11C67
:10090000E5CFFF90EF90DF90CF90BF90AF909F909A
:100910008F9008952FB7F89460911A0D70911B0D68
:1009200080911C0D90911D0D2FBF08950895FC011D
:1009300090E0615050F02191922728E08CE8969544
:1009400008F498272A95D9F7F4CF892F0895DC0168
:100950002C911196ED91FC91F8948181822B8183E9
:100960009281322F30959323928387E090E0019714
:10097000F1F781818323818383E290E00197F1F78E
:1009800090817894EFECF0E03197F1F7922381E0D9
:1009900009F480E00895FC0190810180F281E02D4E
:1009A000292F209560FF14C0F894828182238283CE
:1009B0008181892B8183A3E2B0E01197F1F78281D5
:1009C000982B9283789487ED90E00197F1F7089542
:1009D000F8948281822382838181892B8183AFEF86
:1009E000B0E01197F1F78281982B928378948FE091
:1009F00090E0EBCFDF92EF92FF920F931F93CF9394
:100A0000DF93EC01D62EE42E08E010E0FF24F394EF
:100A100061E08D2D8F2109F460E0CE01BCDFFF0C79
:100A200001501109A9F7E11010C0F894E981FA8189
:100A300091818881809589238183E981FA819281DE
:100A400088818095892382837894DF91CF911F914B
:100A50000F91FF90EF90DF900895EF92FF920F9328
:100A60001F93CF93DF938C017B0140E065E5C2DFEC
:100A7000E70188E0E80EF11C699140E0C801BADFA7
:100A8000CE15DF05C9F7DF91CF911F910F91FF9030
:100A9000EF900895FC0190810180F281E02DF8949F
:100AA0008181292F20958223818378943DE743E03B
:100AB00050E0315029F1DA011197F1F78081892353
:100AC000C1F3F8948281822382838181892B81837F
:100AD0007894ABE7B7E01197F1F7F894818182231E
:100AE0008183A3E1B1E01197F1F78081982381E040
:100AF00009F080E07894E3E6F6E03197F1F70895A5
:100B000080E008956F927F928F929F92AF92BF92F2
:100B1000CF92DF92EF92FF920F931F93CF93DF93C9
:100B20008C01EB018091440E9091450EB3DF882338
:100B300009F43BC0B8018091440E9091450E8DDFC1
:100B400040E06EEB8091440E9091450E53DF7E01A4
:100B50006E0189E0C80ED11C8E01A090440EB090A9
:100B6000450E88E0882E912C712C66246394C50173
:100B7000EEDE81117628660CE1E08E1A9108B9F755
:100B8000F80171928F01CE16DF0639F78091440E7D
:100B90009091450E7FDF813041F4F70181917F0113
:100BA000811105C0E017F107C1F790E007C068E0C8
:100BB000CE01BDDE91E028852813F7CF892FDF9184
:100BC000CF911F910F91FF90EF90DF90CF90BF904A
:100BD000AF909F908F907F906F9008950F931F9389
:100BE000CF93DF9300D000D000D0CDB7DEB78C011B
:100BF000BE016F5F7F4F86DF811105C060E070E04E
:100C00008EEF92EC3EC06A8170E0762F6627770FF8
:100C1000770F770F298148E0249F90011124262B1C
:100C2000372BF80180818031E1F468856623C9F0B3
:100C300070E08F81AB01481B5109CA019695982F2E
:100C40008827979587950E945B32CB018097B901E1
:100C500053E0660F771F5A95E1F760789C01260FE5
:100C6000371F213854EE35074CF2B901330F880B8A
:100C7000990B0E94403120E030E040E05CE30E94AC
:100C8000F43129960FB6F894DEBF0FBECDBFDF91C9
:100C9000CF911F910F910895CF93DF9300D000D093
:100CA00000D0CDB7DEB7FC012081203191F0BE012C
:100CB0006F5F7F4F27DF882331F08D818F33A9F05D
:100CC00020F48F31A1F080E007C08F3521F08F37FD
:100CD000D1F78CE001C08BE029960FB6F894DEBF07
:100CE0000FBECDBFDF91CF9108958AE0F5CF89E0A7
:100CF000F3CF089585ED8093BC008091BC0084FD06
:100D0000FCCF1092F40C08952091A90C260F3327E4
:100D1000331F21323105ECF42091F40CFC0190E0FA
:100D200080E0243069F082E00895A091A90C21911F
:100D3000AC014957534FA40FB52FB11D2C93019609
:100D4000861798F38091A90C680F6093A90C80E036
:100D5000089581E00895089508950895E091860C1E
:100D60008091850CE81730F4F0E0EB59F34F808167
:100D700090E008958FEF9FEF08959091860C8091F9
:100D8000850C2FEF3FEF981748F4E92FF0E0EB596F
:100D9000F34F208130E09F5F9093860CC901089546
:100DA0008091850C9091860C891B990B0895CF92A8
:100DB000DF92EF92FF920F931F93CF93DF937C010B
:100DC000CB018A012091F50C222389F0EB016B0104
:100DD000C40ED51ECC15DD0561F06991D701ED91EA
:100DE000FC910190F081E02DC7011995F3CF642F9C
:100DF0008BDFC801DF91CF911F910F91FF90EF9092
:100E0000DF90CF900895CF93DF931F92CDB7DEB7D9
:100E100069832091F50C2223F9F02091180D2032DE
:100E200058F021E030E0FC013383228390E080E041
:100E30000F90DF91CF9108958091F60CE82FF0E0AC
:100E4000E950F34F998190838F5F8093F60C8093E4
:100E5000180D81E090E0ECCF61E0CE01019654DF07
:100E6000F8CFCF93FC01C48121E02093F50CC0930F
:100E7000170D1092F60C1092180D8385682B8AE0DE
:100E80009EE0C1DF9091180D913208F03FC0809133
:100E9000F40C8111FCCF82E08093F40C81E080930C
:100EA000F30C8FEF8093F20C1092F10C9093F00CF6
:100EB000A7EFBCE0E0EDFCE080E098132FC01092BB
:100EC000CF0C8091CF0CCC0FC82BC093CF0C80914E
:100ED000CE0C813039F51092CE0C8091CF0C8093DE
:100EE000BB008091BC0083FDF8CF85EC8093BC00F3
:100EF0008091F40C8230E1F38091F20C8F3F31F05D
:100F00008091F20C803211F08091F20C1092F60C6C
:100F10001092180D1092F50CCF9108952D912193F8
:100F20008F5FCBCF85EEE2CF90E080E0089584E044
:100F30003ADB9093600C80935F0C009789F480916A
:100F40005E0C811108C0E6DC70935D0C60935C0C54
:100F500081E080935E0C8091220E9091230E089583
:100F60000197C9F780915E0C8823A9F3D3DC209107
:100F70005C0C30915D0C621B730B7093230E6093BD
:100F8000220E10925E0CE7CFDC01ED91FD91808185
:100F9000ED91FD919081ED91FD916C9163708E23A7
:100FA00009F064609F2309F06860E1EEF7E0E60F66
:100FB000F11D659565956D936D917D918D919D91D7
:100FC000099423C01AC012C016C010C01EC009C0A8
:100FD00014C013C006C019C009C00DC007C00DC0A1
:100FE00014C062507040804090400BC0615070400F
:100FF0008040904006C06E5F01C06F5F7F4F8F4F93
:101000009F4F9E938E937E936E9308958091160EBC
:101010009091170EB9CF8091180E9091190EB4CF00
:1010200080911A0E90911B0EAFCF80911C0E909163
:101030001D0EAACF80911E0E90911F0EA5CF8091FC
:10104000200E9091210EA0CF80912F0E823070F44F
:10105000F89484E29EE098DF60912B0E70912C0E44
:1010600080912D0E90912E0E78940895F894F4CFDF
:10107000BF92CF92DF92EF92FF920F931F93CF9385
:10108000DF93EC01B62EC72EED84E11003C002DD24
:1010900081110EC01B861D861C8680E0DF91CF91DA
:1010A0001F910F91FF90EF90DF90CF90BF90089528
:1010B00040E060EFCE019EDCD12C01E011E0CE01DA
:1010C00046DCF82ECE0143DC91E0F91218C08130E5
:1010D00099F51134F8F2EB86E11002C081E08D87BA
:1010E0008B818823B9F22396EB2DFC2DCF01089636
:1010F00029912193E817F907D9F781E0CFCFED2D9A
:10110000F0E0F8120FC08B851817A0F4DE01AE0FC7
:10111000BF1F13968C91802379F4F12C193008F4B9
:101120001C87E12EEC0FFD1F8381902F9095892362
:1011300083830AC08113F1CFFE01ED0DF11D838180
:10114000802B8383FF24F3946F2DCE0124DC1F5F5B
:10115000000F11F4D39401E087E08D1508F0AFCFB4
:10116000B8CF0F931F93CF93DF938C01D62FE091CD
:10117000440EF091450E138615861486128611864C
:10118000108617821682158214821382C0E0B8017D
:101190008091440E9091450E6BDF882329F0DC1777
:1011A00049F0CF5FDC1798F780E0DF91CF911F9176
:1011B0000F91089567E0C801BADBF80197818913A0
:1011C000F0CF81E0F2CFEF92FF920F931F93CF9376
:1011D000DF93CDB7DEB761970FB6F894DEBF0FBED1
:1011E000CDBF8C0159DD893081F4FF24F3948F2D1C
:1011F00061960FB6F894DEBF0FBECDBFDF91CF91E1
:101200001F910F91FF90EF900895BE016F5F7F4F88
:10121000C80178DCF82E882351F3F80180818031F1
:1012200021F38FE18D838091440E9091450E32DC45
:10123000B8018091440E9091450E0FDC40E06EE4C1
:101240008091440E9091450ED5DB40E06B818091FA
:10125000440E9091450ECEDB40E06C818091440EAF
:101260009091450EC7DBF8018081803139F040E074
:101270006D818091440E9091450EBCDB8091440EAF
:101280009091450E07DCB8018091440E9091450E77
:10129000E4DB40913C0E68E48091440E9091450E51
:1012A000A9DB64E170E080E090E003DB80913C0E1C
:1012B0008823A9F080913D0E882321F060E0809181
:1012C0003E0E99D96AE070E080E090E0F2DA809119
:1012D0003D0E882321F061E080913E0E8CD98091F3
:1012E000440E9091450ED6DB80913F0E8A3020F45B
:1012F00089E080933F0E7BCF89E080933F0E10E022
:1013000000E08091420E8017110609F00CF46FCFB7
:10131000602FCE010A9625DFE0903F0ECE010A969F
:10132000BBDC8E1538F480913F0E80933F0E0F5F2B
:101330001F4FE7CFCE010A96AFDCF7CF0F931F9375
:10134000CF938C01C62F8DDD6C2F6460C80189DDC1
:101350006C2F6B7FC80185DD83EC90E00197F1F77E
:10136000CF911F910F9108950F931F93CF93DF9308
:101370008C01D62FC42F607F642BE0DF80E1D89FE3
:10138000B00111246C2BC801DF91CF911F910F91F7
:10139000D5CFCF93DF9300D000D01F921F92CDB74F
:1013A000DEB798E0EBE6F2E0DE01119601900D92D7
:1013B0009A95E1F79091390E961710F46FEF690F37
:1013C000262F30E0220F331F41E050E04C0F5D1F0D
:1013D000240F351FF9016081680F606840E080E3E9
:1013E0009EE028960FB6F894DEBF0FBECDBFDF910A
:1013F000CF91BACF40E061E080E39EE0B5DF8BE3C0
:101400009FE10197F1F7089541E0AEDF81E090E0C0
:1014100008950F931F93CF93DF938B0198E0899FDB
:10142000B0011124606440E080E39EE09DDFE801AC
:10143000085F1F4F699180E39EE0E6DFC017D10788
:10144000C9F7DF91CF911F910F910895FB01019092
:101450000020E9F73197AF01461B570BDC01ED91F6
:10146000FC910280F381E02D199469EA72E08DE627
:101470009DE0ECCF8F929F92AF92BF92EF92FF923E
:101480000F931F93CF93DF93CDB7DEB7A1970FB61E
:10149000F894DEBF0FBECDBF7C01FA01CB0119A2CB
:1014A000223008F42AE08E010F5D1F4F822E912C0E
:1014B000B12CA12CBF01A50194010E941F30F9019C
:1014C000CA016A3004F5605DD8016E938D01232B4B
:1014D000242B252B79F790E080E0109719F0BD01BF
:1014E000C701B4DFA1960FB6F894DEBF0FBECDBF23
:1014F000DF91CF911F910F91FF90EF90BF90AF9030
:101500009F908F900895695CDFCFCF92DF92EF922A
:10151000FF920F931F93CF93DF936B01770FEE082A
:10152000FF08F7FE1AC0EC016DE20E9435018C0144
:1015300044275527BA014C195D096E097F092AE035
:10154000CE0198DF800F911FDF91CF911F910F91F6
:10155000FF90EF90DF90CF9008952AE0B701A601A9
:10156000DF91CF911F910F91FF90EF90DF90CF907F
:1015700081CF242F462F50E070E060E07BCFCF93E7
:10158000DF93BC018DE69DE061DFEC016EDF8C0F27
:101590009D1FDF91CF9108952091640C80914602A8
:1015A00090914702891B990B28171906A4F58CEA1C
:1015B00092E0E5DF82EC92E0E2DF86E08093560283
:1015C00080914C0D863039F1A5D928EE33E040E00A
:1015D00050E00E941F308091570D9091580DA091BE
:1015E000590DB0915A0D281B390B4A0B5B0B80919A
:1015F000530290E0B0E0A0E082179307A407B5077C
:1016000018F481E08093550286E080934C0D809120
:101610004A028093640D9091640C80914602981761
:10162000D0F18CEA92E0ABDF80ED92E0A8DF87E0BA
:101630008093560280914C0D873069F16BD928EE6A
:1016400033E040E050E00E941F308091570D9091B0
:10165000580DA091590DB0915A0D281B390B4A0B0A
:101660005B0B8091510290915002899FC00111241F
:10167000092E000CAA0BBB0B82179307A407B50712
:1016800018F481E08093550287E080934C0D80919F
:101690004D028093640D08952F923F924F925F9276
:1016A0006F927F928F929F92AF92BF92CF92DF9272
:1016B000EF92FF921F93CF93DF93EC016A017B01BE
:1016C000722EAB019601CB01B6010E9457326EED2E
:1016D00072E0811126C046015701E894B7F82FEF58
:1016E0003FEF4FE75FE7C501B4010E945732811118
:1016F0000CC02FEF3FEF4FE75FE7C501B4010E9439
:10170000A63062EE72E0181664F02FEF3FEF4FE75D
:101710005FE4C701B6010E94F0311816ACF466EE22
:1017200072E0CE01DF91CF911F91FF90EF90DF909B
:10173000CF90BF90AF909F908F907F906F905F9071
:101740004F903F902F9082CE2FEF3FEF4FE75FEC0F
:10175000C701B6010E94A63087FDE1CF20E030E04E
:10176000A901C701B6010E94A630312C212C87FFA8
:1017700009C06DE2CE010E9435011C01F7FAF09418
:10178000F7F8F09410E060E070E080E09FE37116FD
:1017900041F020E030E040E251E40E94AA301F5FB7
:1017A000F6CFA70196010E9442302B013C010E9416
:1017B00012314B015C012AE0BC01A401CE015ADECA
:1017C0007C01E20CF31C1123B9F1C501B4010E94A4
:1017D0003E319B01AC01C301B2010E9441304B017B
:1017E0005C016EE2CE010E943501E80EF91E115037
:1017F00018F120E030E040E251E4C501B4010E945C
:10180000F4312B013C010E9412314B01B12CA12C6F
:101810002AE0B501A401CE012DDEE80EF91EC501B6
:10182000B4010E943E319B01AC01C301B2010E9490
:1018300041304B015C01DBCFC701DF91CF911F919C
:10184000FF90EF90DF90CF90BF90AF909F908F90E0
:101850007F906F905F904F903F902F900895F6CDBE
:101860002091640C80914802281718F091E0909321
:10187000630C90914702891B990B2817190614F4E1
:101880001092630C8091630C8130A9F461E08CE0CC
:101890000E94FB0262E080E07CDD3CD828EE33E071
:1018A00040E050E00E941F306FE720FD6EE780E3CC
:1018B0009EE00E9435018091630C81110CC060E0B4
:1018C0008CE00E94FB0262E080E063DD6DE878E07E
:1018D00080E39EE0C4CF08950F931F93CF93DF93CF
:1018E000EC018C01085F1F4F8991803128F463E47B
:1018F00077E08DE69DE0B3DF40E150E0FE013197F7
:1019000060818DE69DE035DEC017D10769F7DF9174
:10191000CF911F910F9108951F93CF93DF93EC0107
:10192000162F0E940930181739F0612FCE01DF9170
:10193000CF911F910C941130DF91CF911F91089599
:10194000AF92BF92CF92DF92EF92FF920F931F93CD
:10195000CF93DF934FDD6AEE72E080E39EE07FDF9E
:1019600068EB7BE080E090E00E945904C8EBDBE08C
:101970000FEF1FEFEE24E394F12CDD24D394AFE0BE
:10198000CA2E60E080E005DD6EEF72E080E39EE04D
:1019900066DFD093230EC093220EC9DA9093230EF4
:1019A0008093220E883B9B4009F475C323DDC8EB6E
:1019B000DBE00FEF1FEFEE24E394F12CE4E1DE2EE9
:1019C00060E080E0E6DC65E273E080E39EE047DF14
:1019D00061E080E0DEDC68E373E080E39EE03FDF0F
:1019E000D093230EC093220EA2DA9093230E8093FD
:1019F000220E883B9B4009F49EC3FCDCC8EBDBE075
:101A00000FEF1FEFEE24E394F12C6EE1D62E60E091
:101A100080E0BFDC6AE473E080E39EE020DF61E009
:101A200080E0B7DC69E573E080E39EE018DFD093E7
:101A3000230EC093220E7BDA9093230E8093220E06
:101A4000883B9B4009F4C0C3D5DCC8EBDBE00FEF5B
:101A50001FEFEE24E394F12C4EE1D42E60E080E001
:101A600098DC6EE673E080E39EE0F9DE61E080E002
:101A700090DC63E873E080E39EE0F1DED093230E18
:101A8000C093220E54DA9093230E8093220E883B4B
:101A90009B4009F4E2C3AEDCC8EBDBE00FEF1FEFC5
:101AA000EE24E394F12C24E1D22E60E080E071DC9E
:101AB00068E973E080E39EE0D2DE61E080E069DC0B
:101AC0006AEA73E080E39EE0CADED093230EC093FF
:101AD000220E2DDA9093230E8093220E883B9B409A
:101AE00009F404C487DCC8EBDBE00FEF1FEFEE2442
:101AF000E394F12C85E0D82E60E080E04ADC68EBCE
:101B000073E080E39EE0ABDE61E080E042DC68EC05
:101B100073E080E39EE0A3DED093230EC093220EF9
:101B200006DA9093230E8093220E883B9B4009F4A3
:101B300022C460DCC8EBDBE00FEF1FEFEE24E39480
:101B4000F12CFFE0DF2EA2E3CA2E60E080E021DC72
:101B500068ED73E080E39EE082DE61E080E019DC06
:101B600068EC73E080E39EE07ADED093230EC093AE
:101B7000220EDDD99093230E8093220E883B9B404A
:101B800009F442C437DCC8EBDBE00FEF1FEFEE24B3
:101B9000E394F12C75E0D72E60E080E0FADB68EB8F
:101BA00073E080E39EE05BDE61E080E0F2DB68EE04
:101BB00073E080E39EE053DED093230EC093220EA9
:101BC000B6D99093230E8093220E883B9B4009F454
:101BD00067C410DCC8EBDBE00FEF1FEFEE24E394EB
:101BE000F12C54E1D52E60E080E0D3DB68ED73E0AA
:101BF00080E39EE034DE61E080E0CBDB68EE73E002
:101C000080E39EE02CDED093230EC093220E8FD96A
:101C10009093230E8093220E883B9B4009F48AC444
:101C2000E9DBC8EBDBE00FEF1FEFEE24E394F12CD0
:101C300022E0C22ED12C3AE0A32EB12C60E080E04D
:101C4000A8DB62E074E080E39EE009DE61E080E012
:101C5000A0DB67E174E080E39EE001DED093230E19
:101C6000C093220E64D99093230E8093220E883B5A
:101C70009B4009F4B0C4BEDBC8EBDBE00BEF1FEF09
:101C8000A5E0EA2EF12CBDE7DB2E86EEC82E60E043
:101C900080E07FDB63E274E080E39EE0E0DD61E012
:101CA00080E077DB68E374E080E39EE0D8DDD093EA
:101CB000230EC093220E3BD99093230E8093220EC5
:101CC000883B9B4009F4E2C495DBC8EBDBE00BEFFB
:101CD0001FEF75E0E72EF12CE9E1DE2EF6E9CF2EBD
:101CE00060E080E056DB61E574E080E39EE0B7DD14
:101CF00061E080E04EDB66E674E080E39EE0AFDD0D
:101D0000D093230EC093220E12D99093230E80936A
:101D1000220E883B9B4009F412C56CDBC8EBDBE06C
:101D20000FEF1FEFEE24E394F12C5EE1D52E66E475
:101D3000C62E60E080E02DDB6BE774E080E39EE080
:101D40008EDD61E080E025DB60E974E080E39EE009
:101D500086DDD093230EC093220EE9D89093230EF4
:101D60008093220E883B9B4009F442C543DBC8EBBD
:101D7000DBE00FEF1FEFEE24E394F12C35E0D32EE0
:101D800060E080E006DB68EA74E080E39EE067DD07
:101D900061E080E0FEDA6DEB74E080E39EE05FDD01
:101DA000D093230EC093220EC2D89093230E80931B
:101DB000220E883B9B4009F46EC51CDBC8EBDBE0C0
:101DC0000FEF1FEFEE24E394F12C80E5D82E94E67C
:101DD000C92E60E080E0DDDA62ED74E080E39EE031
:101DE0003EDD61E080E0D5DA67EE74E080E39EE0FE
:101DF00036DDD093230EC093220E99D89093230EF4
:101E00008093220E883B9B4009F497C5F3DAC8EB18
:101E1000DBE00FEF1FEFEE24E394F12CF2E3DF2E73
:101E2000ACE3CA2E60E080E0B4DA62ED74E080E3F7
:101E30009EE015DD61E080E0ACDA6CEF74E080E3F9
:101E40009EE00DDDD093230EC093220E70D89093A8
:101E5000230E8093220E883B9B4009F4C1C5CADA49
:101E6000C8EBDBE00FEF1FEFEE24E394F12C60E012
:101E700080E08FDA68EA74E080E39EE0F0DC61E005
:101E800080E087DA61E175E080E39EE0E8DCD093F2
:101E9000230EC093220E4BD89093230E8093220ED4
:101EA000883B9B4009F4EFC5A5DAC8EBDBE00FEFF8
:101EB0001FEFEE24E394F12C52E3D52E6CE3C62EF3
:101EC00060E080E066DA62ED74E080E39EE0C7DC0B
:101ED00061E080E05EDA66E275E080E39EE0BFDC10
:101EE000D093230EC093220E22D89093230E80937A
:101EF000220E883B9B4009F418C67CDAC8EBDBE075
:101F00000FEF1FEFEE24E394F12C60E080E041DA64
:101F100068EA74E080E39EE0A2DC61E080E039DA08
:101F20006BE375E080E39EE09ADCD093230EC093D0
:101F3000220E0E9497079093230E8093220E883BD7
:101F40009B4009F445C656DAC8EBDBE00FEF1FEF04
:101F5000EE24E394F12C98E2D92E2CE3C22E60E01B
:101F600080E017DA60E575E080E39EE078DC61E010
:101F700080E00FDA65E675E080E39EE070DCD093E8
:101F8000230EC093220E0E9497079093230E8093F6
:101F9000220E883B9B4009F46DC62CDA60E080E09D
:101FA000F8D96AE775E080E39EE059DC60914F0262
:101FB00085E690E0B1DC60914E0286E690E0ACDC14
:101FC00060914C0287E690E0A7DC6091490288E6C8
:101FD00090E0A2DC609154028AE690E09DDC609182
:101FE00053028BE690E098DC609152028CE690E020
:101FF00093DC609150028DE690E08EDC6091590296
:102000008EE690E089DC60914D028FE690E084DC02
:1020100060914A0280E790E07FDC6091460281E7B0
:1020200090E07ADC6091470282E790E075DC609195
:10203000450283E790E070DC6091440284E790E021
:102040006BDC6091430285E790E066DC60914202C0
:1020500086E790E061DC6091410287E790E05CDC1C
:102060006091480288E790E057DC60914B0289E775
:1020700090E052DC60ED77E080E090E00E9459044F
:10208000DF91CF911F910F91FF90EF90DF90CF9054
:10209000BF90AF90AFC962E08AE07BD9F89410920C
:1020A0002B0E10922C0E10922D0E10922E0E789454
:1020B00062E370E080E090E00E9459040E942408EE
:1020C0006F3F2FEF72077CF17093620C6093610C8D
:1020D0008091610C9091620C029724F0F092620C56
:1020E000E092610C8091610C90914F02890F01F197
:1020F00080934F0280914F02803110F0C0924F02C6
:102100004AE050E060914F0280E39EE032DA809135
:102110004F0263E173E0813011F06CE173E080E322
:102120009EE09DDB2ECC1093620C0093610CD0CF0F
:10213000D0924F02DFCF62E08AE02BD9F894109260
:102140002B0E10922C0E10922D0E10922E0E7894B3
:1021500062E370E080E090E00E9459040E9424084D
:102160006F3F2FEF72074CF17093620C6093610C1C
:102170008091610C9091620C029724F0F092620CB5
:10218000E092610C8091610C90914E02890FD1F028
:1021900080934E0280914E02853110F0D0924E0213
:1021A0004AE050E060914E0280E39EE0E2D966E4AE
:1021B00073E080E39EE053DB03CC1093620C00934A
:1021C000610CD6CF81E0E4CF62E08AE0E2D8F894F7
:1021D00010922B0E10922C0E10922D0E10922E0E8D
:1021E000789462E370E080E090E00E9459040E94DD
:1021F00024086F3F2FEF72074CF17093620C6093CD
:10220000610C8091610C9091620C029724F0F09225
:10221000620CE092610C8091610C90914C02890FEC
:10222000D1F080934C0280914C028F3110F0D0920B
:102230004C024AE050E060914C0280E39EE099D964
:1022400066E473E080E39EE00ADBE1CB1093620C6E
:102250000093610CD6CF81E0E4CF62E08AE099D8A8
:10226000F89410922B0E10922C0E10922D0E1092AC
:102270002E0E789462E370E080E090E00E945904B2
:102280000E9424086F3F2FEF72074CF17093620C8D
:102290006093610C8091610C9091620C029724F024
:1022A000F092620CE092610C8091610C90914B0273
:1022B000890FD1F080934B0280914B028F3110F047
:1022C000D0924B024AE050E060914B0280E39EE0E6
:1022D00050D966E473E080E39EE0C1DABFCB10938F
:1022E000620C0093610CD6CF81E0E4CF62E08AE01B
:1022F00050D8F89410922B0E10922C0E10922D0E96
:1023000010922E0E789462E370E080E090E00E94DC
:1023100059040E9424086F3F2FEF720724F1709335
:10232000620C6093610C8091610C9091620C029739
:1023300024F0F092620CE092610C8091610C90911B
:102340004902890F8431A0F0809349024AE050E0AD
:102350006091490280E39EE00CD966E473E080E37B
:102360009EE07DDAA2CB1093620C0093610CDBCF70
:10237000D0924902EBCF62E08AE00BD8F894109239
:102380002B0E10922C0E10922D0E10922E0E789471
:1023900062E370E080E090E00E9459040E9424080B
:1023A0006F3F2FEF72074CF17093620C6093610CDA
:1023B0008091610C9091620C029724F0F092620C73
:1023C000E092610C8091610C90915402890FD1F0E0
:1023D0008093540280915402863010F0D0925402BF
:1023E0004AE050E06091540280E39EE0C2D866E487
:1023F00073E080E39EE033DA7FCB1093620C0093AE
:10240000610CD6CF81E0E4CF62E08AE00E94C90986
:10241000F89410922B0E10922C0E10922D0E1092FA
:102420002E0E789462E370E080E090E00E94590400
:102430000E9424086F3F2FEF720754F17093620CD3
:102440006093610C8091610C9091620C029724F072
:10245000F092620CE092610C8091610C90915302B9
:10246000890F8F30D0F080935302809153028333D1
:1024700010F0C09253024AE050E06091530280E3B2
:102480009EE077D866E473E080E39EE0E8D95DCB18
:102490001093620C0093610CD5CFD0925302E5CF1C
:1024A00062E08AE00E94C909F89410922B0E109203
:1024B0002C0E10922D0E10922E0E789462E370E086
:1024C00080E090E00E9459040E9424086F3F2FEFA3
:1024D00072074CF17093620C6093610C8091610CF7
:1024E0009091620C029724F0F092620CE092610CE1
:1024F0008091610C90915202890FD1F08093520229
:1025000080915202863010F0D09252024AE050E0A0
:102510006091520280E39EE02CD866E473E080E391
:102520009EE09DD939CB1093620C0093610CD6CFFD
:1025300081E0E4CF62E08AE00E94C909F894109239
:102540002B0E10922C0E10922D0E10922E0E7894AF
:1025500062E370E080E090E00E9459040E94240849
:102560006F3F2FEF720784F17093620C6093610CE0
:102570008091610C9091620C029724F0F092620CB1
:10258000E092610C8091610C90915002890F09F1E9
:102590008093500280915002853110F0D092500209
:1025A0004AE050E06091500280E39EE00E94B90A48
:1025B000809150026AEF73E0813011F06CE173E0BA
:1025C00080E39EE04CD90FCB1093620C0093610C1A
:1025D000CFCF81E0DDCF62E08AE00E94C909F894A4
:1025E00010922B0E10922C0E10922D0E10922E0E79
:1025F000789462E370E080E090E00E9459040E94C9
:1026000024086F3F2FEF7207BCF17093620C609348
:10261000610C8091610C9091620C029724F0F09211
:10262000620CE092610C8091590290915A022091C3
:10263000610C3091620C820F931F823091050CF176
:1026400090935A02809359028091590290915A02B4
:102650000B9724F0B0925A02A0925902609159024D
:1026600070915A0280E39EE00E94850A66E473E05E
:1026700080E39EE0F4D8E2CA1093620C0093610CF0
:10268000C8CFD0925A02C0925902DECF62E08AE0EF
:102690000E94C909F89410922B0E10922C0E1092E1
:1026A0002D0E10922E0E789462E370E080E090E0A0
:1026B0000E9459040E9424086F3F2FEF7207BCF15B
:1026C0007093620C6093610C8091610C9091620C2C
:1026D000029724F0F092620CE092610C8091610C00
:1026E00090914A02890F8D3738F180934A02809188
:1026F0004A02873E10F0C0924A0260914A0270E09E
:1027000090E080E00E94403123E333E343E250E471
:102710000E94AA30AB01BC0120E080E39EE00E9451
:102720004C0B6DE474E080E39EE099D8B0CA10933E
:10273000620C0093610CC8CFD0924A02D8CF62E0FD
:102740008AE00E94C909F89410922B0E10922C0E68
:1027500010922D0E10922E0E789462E370E080E0BD
:1027600090E00E9459040E9424086F3F2FEF7207E7
:10277000BCF17093620C6093610C8091610C90913C
:10278000620C029724F0F092620CE092610C80914E
:10279000610C90914D02890F893138F180934D027F
:1027A00080914D02873910F0C0924D0260914D0228
:1027B00070E090E080E00E94403123E333E343E2A5
:1027C00050E40E94AA30AB01BC0120E080E39EE00F
:1027D0000E944C0B6DE474E080E39EE040D880CA18
:1027E0001093620C0093610CC8CFD0924D02D8CFE9
:1027F00062E08AE00E94C909F89410922B0E1092B0
:102800002C0E10922D0E10922E0E789462E370E032
:1028100080E090E00E9459040E9424086F3F2FEF4F
:1028200072078CF17093620C6093610C8091610C63
:102830009091620C029724F0F092620CE092610C8D
:102840008091610C90914602890F8E3108F180933E
:10285000460280914602873410F0C09246024AE058
:1028600050E06091460280E39EE00E94B90A6FED5D
:1028700080E39EE00E94350165EA74E080E39EE01B
:102880000E942F0C56CA1093620C0093610CCECF9D
:10289000D0924602DECF62E08AE00E94C909F89435
:1028A00010922B0E10922C0E10922D0E10922E0EB6
:1028B000789462E370E080E090E00E9459040E9406
:1028C00024086F3F2FEF72078CF17093620C6093B6
:1028D000610C8091610C9091620C029724F0F0924F
:1028E000620CE092610C8091610C90914702890F1B
:1028F000823008F18093470280914702863010F0C1
:10290000D09247024AE050E06091470280E39EE0A7
:102910000E94B90A6FED80E39EE00E94350165EAEE
:1029200074E080E39EE00E942F0C2ACA1093620C90
:102930000093610CCECF82E0DDCF62E08AE00E949E
:10294000C909F89410922B0E10922C0E10922D0E95
:1029500010922E0E789462E370E080E090E00E9486
:1029600059040E9424086F3F2FEF72078CF1709377
:10297000620C6093610C8091610C9091620C0297E3
:1029800024F0F092620CE092610C8091610C9091C5
:102990004302890F803508F18093430280914302FE
:1029A000853610F0C09243024AE050E06091430245
:1029B00080E39EE00E94B90A6FED80E39EE00E94F2
:1029C000350165EA74E080E39EE00E942F0C01CAA5
:1029D0001093620C0093610CCECFD0924302DECFF5
:1029E00062E08AE00E94C909F89410922B0E1092BE
:1029F0002C0E10922D0E10922E0E789462E370E041
:102A000080E090E00E9459040E9424086F3F2FEF5D
:102A100072078CF17093620C6093610C8091610C71
:102A20009091620C029724F0F092620CE092610C9B
:102A30008091610C90914202890F823308F180935A
:102A40004202809142028D3310F0C09242024AE06D
:102A500050E06091420280E39EE00E94B90A6FED6F
:102A600080E39EE00E94350165EA74E080E39EE029
:102A70000E942F0CD7C91093620C0093610CCECF2B
:102A8000D0924202DECF62E08AE00E94C909F89447
:102A900010922B0E10922C0E10922D0E10922E0EC4
:102AA000789462E370E080E090E00E9459040E9414
:102AB00024086F3F2FEF72078CF17093620C6093C4
:102AC000610C8091610C9091620C029724F0F0925D
:102AD000620CE092610C8091610C90914502890F2B
:102AE00011F180934502809145028B3018F08AE005
:102AF000809345024AE050E06091450280E39EE009
:102B00000E94B90A6FED80E39EE00E94350165EAFC
:102B100074E080E39EE00E942F0CA9C91093620C20
:102B20000093610CCECF81E0DCCF62E08AE00E94AE
:102B3000C909F89410922B0E10922C0E10922D0EA3
:102B400010922E0E789462E370E080E090E00E9494
:102B500059040E9424086F3F2FEF72078CF1709385
:102B6000620C6093610C8091610C9091620C0297F1
:102B700024F0F092620CE092610C8091610C9091D3
:102B80004102890F823308F1809341028091410212
:102B90008D3310F0C09241024AE050E06091410252
:102BA00080E39EE00E94B90A6FED80E39EE00E9400
:102BB000350165EA74E080E39EE00E942F0C80C935
:102BC0001093620C0093610CCECFD0924102DECF05
:102BD00062E08AE00E94C909F89410922B0E1092CC
:102BE0002C0E10922D0E10922E0E789462E370E04F
:102BF00080E090E00E9459040E9424086F3F2FEF6C
:102C000072078CF17093620C6093610C8091610C7F
:102C10009091620C029724F0F092620CE092610CA9
:102C20008091610C90914402890F11F180934402CC
:102C3000809144028B3018F08AE0809344024AE08D
:102C400050E06091440280E39EE00E94B90A6FED7B
:102C500080E39EE00E94350165EA74E080E39EE037
:102C60000E942F0C52C91093620C0093610CCECFBE
:102C700081E0DCCF62E08AE00E94C909F8941092FA
:102C80002B0E10922C0E10922D0E10922E0E789468
:102C900062E370E080E090E00E9459040E94240802
:102CA0006F3F2FEF72078CF17093620C6093610C91
:102CB0008091610C9091620C029724F0F092620C6A
:102CC000E092610C8091610C90914802890F8832EA
:102CD00008F180934802809148028D3310F0C09231
:102CE00048024AE050E06091480280E39EE00E9482
:102CF000B90A6FED80E39EE00E94350165EA74E059
:102D000080E39EE00E942F0C2AC91093620C00936E
:102D1000610CCECFD0924802DECF0C9409308F9256
:102D20009F92AF92BF92CF92DF92EF92FF926EE8A6
:102D300075E08DE69DE00E942F0C8091440E9091ED
:102D4000450E0E944A0540E06CEC8091440E909143
:102D5000450E0E94FA0440913C0E64E48091440EBA
:102D60009091450E0E94FA048091400E882391F1C3
:102D7000E0913F0EE9508EEE92E0E33038F4F0E05F
:102D8000EE0FFF1FED58FD4F808191816C01990F6F
:102D9000EE08FF088091410E882309F4D4C1809188
:102DA0003C0E8111D0C10E948A044B015C018091CC
:102DB000440E9091450E0E94A704813059F00E9464
:102DC0008A04681979098A099B096C157D058E05A5
:102DD0009F0568F389EA95E00E94BF0A84E59CE0BC
:102DE0000E94EE050E9412316093640C6EEA75E059
:102DF0008DE69DE00E942F0C4AE050E06091640C4B
:102E00008DE69DE00E94B90A8AEB95E00E94BF0A18
:102E10008CE49CE00E94EE050E94123160934B0C02
:102E20006DEB75E08DE69DE00E942F0C4AE050E0CE
:102E300060914B0C8DE69DE00E94B90A8AEB95E00B
:102E40000E94BF0A83E49CE00E94EE050E941231BA
:102E50006093420C69EC75E08DE69DE00E942F0CBA
:102E60004AE050E06091420C8DE69DE00E94B90A74
:102E70008AEB95E00E94BF0A62E083E00E94C909E4
:102E800065ED75E080E39EE00E942F0C63E080E03A
:102E90000E94C90960E080E39EE00E94040A8091DC
:102EA000640C843630F467EE75E080E39EE00E94A7
:102EB0002F0C8091640C8A3030F46DE878E080E368
:102EC0009EE00E942F0C4AE050E06091640C80E389
:102ED0009EE00E94B90A6FED80E39EE00E943501FA
:102EE00065EA74E080E39EE00E942F0C63E087E0D7
:102EF0000E94C9090E948A0428EE33E040E050E0B5
:102F00000E941F3061E020FD67E080E39EE00E94A8
:102F1000040A80914B0C843630F467EE75E080E350
:102F20009EE00E942F0C80914B0C8A3030F46DE8AB
:102F300078E080E39EE00E942F0C4AE050E0609130
:102F40004B0C80E39EE00E94B90A6FED80E39EE0A7
:102F50000E94350165EA74E080E39EE00E942F0C38
:102F600063E08EE00E94C90962E080E39EE00E9477
:102F7000040A8091420C843630F467EE75E080E3F9
:102F80009EE00E942F0C8091420C8A3030F46DE854
:102F900078E080E39EE00E942F0C4AE050E06091D0
:102FA000420C80E39EE00E94B90A6FED80E39EE050
:102FB0000E9435016BEB75E080E39EE00E942F0CD0
:102FC0000E948A0428EEC22E23E0D22EE12CF12C9E
:102FD000A70196010E941F302093670D3093680D62
:102FE0004093690D50936A0D9091640C8091430257
:102FF000981778F18CEA92E00E94BF0A89EE95E07A
:103000000E94BF0A81E080936C0D8093470D8091F0
:10301000640C90E09093460D8093450D1092670DDF
:103020001092680D1092690D10926A0D61E084E6AD
:1030300090E00E948C0C0E948A04A70196010E94D5
:103040001F302093480D3093490D40934A0D509303
:103050004B0D90914B0C80914202981788F18CEAAD
:1030600092E00E94BF0A8AE096E00E94BF0A81E0D7
:1030700080936C0D8093440D80914B0C90E0909365
:10308000430D8093420D1092670D1092680D1092BF
:10309000690D10926A0D61E084E690E00E948C0C4C
:1030A0000E948A0428EE33E040E050E00E941F3086
:1030B0002093480D3093490D40934A0D50934B0D8A
:1030C0009091420C80914102981788F18CEA92E02D
:1030D0000E94BF0A8EE296E00E94BF0A8091420CD5
:1030E00090E09093400D80933F0D81E08093410DDF
:1030F00080936C0D1092670D1092680D1092690DFF
:1031000010926A0D61E084E690E00E948C0C0E94AF
:103110008A0428EE33E040E050E00E941F30209304
:10312000480D3093490D40934A0D50934B0D89E55E
:1031300096E0FF90EF90DF90CF90BF90AF909F9080
:103140008F900C94BF0A80913D0E882329F060E097
:1031500080913E0E0E94FB02C701B6010E945904F5
:1031600080913D0E882309F435CE61E080913E0EBA
:103170000E94FB022FCE0F931F93CF93DF9300D0BB
:1031800000D01F921F92CDB7DEB7E0917D0DF09178
:103190007E0D82E08083E091790DF0917A0D1082AE
:1031A000E0917B0DF0917C0D8FEC80831092850D6A
:1031B000E091810DF091820D86E08083E0917F0D9A
:1031C000F091800D808180618083E0917F0DF0918E
:1031D000800D808188608083E0917F0DF091800D6B
:1031E000808180688083E0917F0DF091800D8081E7
:1031F0008F7D808383E690E090DD809340024AE0FB
:1032000050E0682F8DE69DE00E94B90A0E94350AC1
:10321000809140028B3009F472C06BE083E690E04D
:103220000E948C0C60E084E690E00E948C0C61E0CF
:1032300085E690E00E948C0C65E086E690E00E94B6
:103240008C0C65E087E690E00E948C0C65E088E6D7
:1032500090E00E948C0C65E08AE690E00E948C0C65
:103260006CE38BE690E00E948C0C65E08CE690E0CD
:103270000E948C0C67E08DE690E00E948C0C63E06D
:103280008EE690E00E948C0C6DE48FE690E00E9448
:103290008C0C60E880E790E00E948C0C6CE381E786
:1032A00090E00E948C0C63E082E790E00E948C0C1E
:1032B0006AE083E790E00E948C0C6AE084E790E08B
:1032C0000E948C0C64E685E790E00E948C0C6CE315
:1032D00086E790E00E948C0C6CE387E790E00E9408
:1032E0008C0C68E288E790E00E948C0C65E089E72E
:1032F00090E00E948C0C85E796E00E94BF0A109235
:10330000860C1092850C1092F60C1092180D1092EB
:10331000F40C81E08093F30C1092CE0C61E084E118
:103320000E94FB0261E085E10E94FB028091B900EE
:103330008E7F8093B9008091B9008D7F8093B90012
:1033400088E48093B80085E48093BC008BEA96E023
:103350009093A80C8093A70C8CEA96E09093AC0C09
:103360008093AB0C1092350E8091390E823018F09C
:1033700098E09093350E90913A0E992339F0813070
:1033800029F48091350E84608093350E62E370E0FD
:1033900080E090E00E94590460913B0E80E39EE043
:1033A0000E94310768EE73E080E090E00E945904CB
:1033B00060E380E39EE00E949E090BE416E4C801EE
:1033C0000197F1F760E380E39EE00E949E09C80147
:1033D0000197F1F760E380E39EE00E949E0983E598
:1033E00092E00197F1F760E280E39EE00E949E097F
:1033F0006091350E606240E080E39EE00E94B40977
:1034000084E08093360E40E06CE080E39EE00E9412
:10341000B4090E94FA0982E08093370E40E066E02A
:1034200080E39EE00E94B40940E062E080E39EE019
:103430000E94B4098BE39FE10197F1F768E372E022
:1034400080E00E94090A60E372E082E00E94090ABB
:1034500068E272E083E00E94090A60E272E084E0C0
:103460000E94090A68E172E085E00E94090A60E1B1
:1034700072E086E00E94090A68E072E087E00E943C
:10348000090A60E072E081E00E94090A88E0809306
:103490003B0E60E080E39EE00E94310760E080E048
:1034A0000E94C9096DE876E080E39EE00E942F0C3F
:1034B00061E080E00E94C90962EA76E080E39EE074
:1034C0000E942F0C62E080E00E94C90967EB76E061
:1034D00080E39EE00E942F0C63E080E00E94C90917
:1034E0006CEC76E080E39EE00E942F0C61E085E0CA
:1034F0000E94280390E080E00E94640361E087E07E
:103500000E94280360E087E00E94FB0261E086E001
:103510000E94280360E086E00E94FB0261E08AE0EE
:103520000E94280360E08AE00E94FB0261E08BE0D9
:103530000E94280360E08BE00E94FB0261E08CE0C7
:103540000E94280360E08CE00E94FB0260E088E0BB
:103550000E94280361E088E00E94FB0260E084E0B2
:103560000E94280361E084E00E94FB0260E086E3A1
:103570000E942803E091440EF091450E13861586B3
:10358000148612861186108617821682158214827E
:1035900013821092420E1092430E11E0BE016F5F33
:1035A0007F4F8091440E9091450E0E9438088823E9
:1035B00009F45FC067E0CE0101960E9497049885E8
:1035C0008913ECCF80913C0E811128C08091440E6C
:1035D0009091450E0E944A05BE016F5F7F4F80911A
:1035E000440E9091450E0E942D0540E064EB8091C1
:1035F000440E9091450E0E94FA048091440E9091E1
:10360000450E0E94A704082F8091440E9091450E0C
:103610000E944A05011102C010933C0E00913F0E1A
:10362000CE0101960E944C068017C0F480913F0E97
:1036300080933F0E8091420E8F5F8093420E89816E
:10364000883231F080F4803119F0823209F0A6CF4F
:103650008091430E8F5F8093430EA0CFCE010196E1
:103660000E944C06E5CF8B3399F3823409F096CF54
:10367000EFCF61EE76E08DE69DE00E942F0C65EFC6
:1036800076E08DE69DE00E942F0C4AE050E06091CC
:10369000420E8DE69DE00E94B90A8CEF96E00E94F2
:1036A000BF0A66E077E08DE69DE00E942F0C8091D6
:1036B0003C0E882309F48EC18AE197E00E94BF0A7C
:1036C00060E084E59CE00E94B108811104C081E2C1
:1036D00097E00E94BF0A61E08CE49CE00E94B10880
:1036E000811104C085E497E00E94BF0A62E083E490
:1036F0009CE00E94B108811104C089E697E00E9415
:10370000BF0A6DE877E08DE69DE00E942F0C84E50E
:103710009CE00E946C0C0E94350A60EA77E08DE61E
:103720009DE00E942F0C8CE49CE00E946C0C0E9497
:10373000350A63EB77E08DE69DE00E942F0C83E471
:103740009CE00E946C0C0E94350A84E59CE00E947B
:10375000E3088CE49CE00E94E30883E49CE00E9480
:10376000E30866EC77E08DE69DE00E942F0C84E58F
:103770009CE00E944C064AE050E0682F8DE69DE0F8
:103780000E94B90A0E94350A6CED77E08DE69DE053
:103790000E942F0C8CE49CE00E944C064AE050E012
:1037A000682F8DE69DE00E94B90A0E94350A62EFFB
:1037B00077E08DE69DE00E942F0C83E49CE00E9460
:1037C0004C064AE050E0682F8DE69DE00E94B90A61
:1037D0000E94350A8DE898E00E94BF0A88E098E0D0
:1037E0000E94BF0A8FE198E00E94BF0A8CE3809399
:1037F000510289E398E00E94BF0A8FE198E00E949D
:10380000BF0A60EA7FE080E090E00E9459040E94D5
:10381000FA0960E080E00E94C90963E578E080E38E
:103820009EE00E942F0C60ED77E080E090E00E9427
:1038300059040E94FA0985E690E06FDA80934F02FE
:1038400086E690E06ADA80934E0287E690E065DAD9
:1038500080934C0288E690E060DA809349028AE621
:1038600090E05BDA809354028BE690E056DA809326
:1038700053028CE690E051DA809352028DE690E09C
:103880004CDA809350028EE690E047DA90E0909315
:103890005A02809359028FE690E03FDA80934D02FE
:1038A00080E790E03ADA80934A0281E790E035DAE7
:1038B0008093460282E790E030DA8093470283E704
:1038C00090E02BDA8093450284E790E026DA80933B
:1038D000440285E790E021DA8093430286E790E096
:1038E0001CDA8093420287E790E017DA8093410266
:1038F00088E790E012DA8093480289E790E00DDAD9
:1039000080934B0284E690E008DA80936C0D07DA2E
:103910000E94300C64EF71E080E090E00E94590456
:1039200011E000916C0D013009F07BC0F8D90E94C4
:10393000300C9091640C80914602981708F04DC0AD
:103940001092470D20914B0C8091420290914502BC
:10395000891B990B281719060CF042C01092440DD0
:103960002091420C8091410290914402891B990B55
:1039700028171906C4F51092410D8091470D9091BA
:10398000440D890F9091410D890F81F510926C0DB6
:1039900060E084E690E00E948C0C60E080E00E9491
:1039A000C90965E678E080E39EE00E942F0C61E0A3
:1039B00080E00E94C9096AE778E080E39EE00E9407
:1039C0002F0C6CED75E080E090E00E9459040E949D
:1039D000FA09A7CF8DE197E071CE0093470DB2CFE2
:1039E0001093440DBDCF1093410DC7CF60E080E030
:1039F0000E94C9096FE878E080E39EE00E942F0CE6
:103A000061E080E00E94C9096DEA72E080E39EE017
:103A10000E942F0C68EB7BE080E090E00E9459044C
:103A200080CF28960FB6F894DEBF0FBECDBFDF91D2
:103A3000CF911F910F9108951F920F920FB60F9281
:103A400011240BB60F922F933F934F935F936F9375
:103A50007F938F939F93AF93BF93EF93FF938DE6E5
:103A60009DE00E94AF01FF91EF91BF91AF919F91B7
:103A70008F917F916F915F914F913F912F910F9017
:103A80000BBE0F900FBE0F901F9018951F920F92B4
:103A90000FB60F9211240BB60F922F938F939F9313
:103AA000EF93FF93E0917D0DF0917E0D8081E09189
:103AB000830DF091840D82FD1DC090818091860D53
:103AC0008F5F8F732091870D821741F0E091860DF3
:103AD000F0E0E359F24F958F8093860DFF91EF91BF
:103AE0009F918F912F910F900BBE0F900FBE0F9053
:103AF0001F9018958081F2CF1F920F920FB60F92F0
:103B000011242F933F938F939F93AF93BF938091F3
:103B10001A0D90911B0DA0911C0DB0911D0D3091AF
:103B2000190D23E0230F2D3758F50196A11DB11D66
:103B30002093190D80931A0D90931B0DA0931C0DCB
:103B4000B0931D0D80911E0D90911F0DA091200D21
:103B5000B091210D0196A11DB11D80931E0D909372
:103B60001F0DA093200DB093210DBF91AF919F9198
:103B70008F913F912F910F900FBE0F901F9018952E
:103B800026E8230F0296A11DB11DD2CF1F920F92DE
:103B90000FB60F9211240BB60F922F933F934F93B2
:103BA0005F936F937F938F939F93AF93BF93EF93A5
:103BB000FF93E0916902F0916A021995FF91EF91EC
:103BC000BF91AF919F918F917F916F915F914F9135
:103BD0003F912F910F900BBE0F900FBE0F901F9033
:103BE00018951F920F920FB60F9211240BB60F92D9
:103BF0002F933F934F935F936F937F938F939F93F5
:103C0000AF93BF93EF93FF93E0916702F091680247
:103C10001995FF91EF91BF91AF919F918F917F91F6
:103C20006F915F914F913F912F910F900BBE0F902D
:103C30000FBE0F901F9018951F920F920FB60F9204
:103C400011240BB60F922F933F934F935F936F9373
:103C50007F938F939F93AF93BF93EF93FF93E091E5
:103C60005D02F0915E021995FF91EF91BF91AF91C6
:103C70009F918F917F916F915F914F913F912F9184
:103C80000F900BBE0F900FBE0F901F9018951F92B4
:103C90000F920FB60F9211240BB60F922F933F93F2
:103CA0004F935F936F937F938F939F93AF93BF9344
:103CB000EF93FF93E0915B02F0915C021995FF9105
:103CC000EF91BF91AF919F918F917F916F915F9194
:103CD0004F913F912F910F900BBE0F900FBE0F9001
:103CE0001F9018951F920F920FB60F9211240BB6CA
:103CF0000F922F933F934F935F936F937F938F9385
:103D00009F93AF93BF93EF93FF93E0916502F09180
:103D100066021995FF91EF91BF91AF919F918F919D
:103D20007F916F915F914F913F912F910F900BBEBB
:103D30000F900FBE0F901F9018951F920F920FB605
:103D40000F9211240BB60F922F933F934F935F93D3
:103D50006F937F938F939F93AF93BF93EF93FF9353
:103D6000E0916302F09164021995FF91EF91BF9188
:103D7000AF919F918F917F916F915F914F913F9103
:103D80002F910F900BBE0F900FBE0F901F901895A4
:103D90001F920F920FB60F9211240BB60F922F9312
:103DA0003F934F935F936F937F938F939F93AF93C3
:103DB000BF93EF93FF93E0916102F0916202199536
:103DC000FF91EF91BF91AF919F918F917F916F91F3
:103DD0005F914F913F912F910F900BBE0F900FBEAF
:103DE0000F901F9018951F920F920FB60F921124EB
:103DF0000BB60F922F933F934F935F936F937F93E5
:103E00008F939F93AF93BF93EF93FF93E0915F02E4
:103E1000F09160021995FF91EF91BF91AF919F9141
:103E20008F917F916F915F914F913F912F910F9063
:103E30000BBE0F900FBE0F901F9018951F920F9200
:103E40000FB60F9211240BB60F922F933F934F93FF
:103E50005F936F937F938F939F93AF93BF93EF93F2
:103E6000FF938091B900887F803609F44DC008F037
:103E700040C0883209F4A9C028F5803109F49DC0FA
:103E8000C8F4882309F4FBC0883009F496C0FF9178
:103E9000EF91BF91AF919F918F917F916F915F91C2
:103EA0004F913F912F910F900BBE0F900FBE0F902F
:103EB0001F901895883109F488C0803241F78093AB
:103EC000F20C14C0803409F49DC040F48033B9F37F
:103ED0008833E9F68093F20C85ECB0C0803509F4A4
:103EE00085C0883509F496C0883489F60E947A0620
:103EF000CECF883909F48CC038F5883729F050F4D2
:103F0000883611F0803719F683E08093F40C109214
:103F1000CD0C57C0883809F47BC0803919F080383F
:103F200009F0B5CF8091CD0C803208F071C0E091DE
:103F3000CD0C81E08E0F8093CD0C8091BB00F0E022
:103F4000E355F34F80833DC0803B39F0E0F4803A85
:103F500009F479C0883A09F09ACF84E08093F40C90
:103F60001092AA0C1092A90CE091A70CF091A80C49
:103F700019958091A90C81110FC081E08093A90C43
:103F80001092870C09C0803C09F4A6CF883C09F444
:103F9000A3CF883B09F07BCFE091AA0C81E08E0F84
:103FA0008093AA0CF0E0E957F34F80818093BB0027
:103FB0009091AA0C8091A90C29C08091CF0C80937C
:103FC000BB0085EC8093BC0062CF9091F10C809196
:103FD000F00C981758F5E091F10C81E08E0F80936A
:103FE000F10CF0E0E053F34F8081E9CFE091F10C68
:103FF00081E08E0F8093F10C8091BB00F0E0E053E4
:10400000F34F80839091F10C8091F00C9817C8F2D7
:1040100085E8D8CFE091F10C81E08E0F8093F10C10
:104020008091BB00F0E0E053F34F80838091F30C6C
:1040300081115CCF81E08093CE0C84EA8093BC0038
:104040001092F40C24CF85EC8093BC001092F40CF9
:104050008091CD0C803230F4E091CD0CF0E0E3554E
:10406000F34F10826091CD0C70E0E091AB0CF091B9
:10407000AC0C8DEA9CE019951092CD0C08CF1092F3
:10408000F20C34CFCF93DF931092700D10926F0D1E
:1040900088EE93E0A0E0B0E08093710D9093720DF4
:1040A000A093730DB093740D2DE732E030936E0D35
:1040B00020936D0D25EC30E030937A0D2093790D2F
:1040C00024EC30E030937C0D20937B0D20EC30E02D
:1040D00030937E0D20937D0D21EC30E03093800DE8
:1040E00020937F0D22EC30E03093820D2093810DE0
:1040F00026EC30E03093840D2093830D1092860DD2
:104100001092870D1092880D1092890D10920D0E4D
:1041100010920C0E80930E0E90930F0EA093100E23
:10412000B093110E8FE892E090930B0E80930A0EDD
:1041300060E089E00E942803E7ECF1E0E491E0937D
:10414000520EE1E8F1E0E491F0E0EE0FFF1FE25AD9
:10415000FE4F859194919093540E8093530E10923C
:104160005D0E10925F0E10925E0E10925C0E109219
:104170005B0E10925A0E1092590E1092580E109219
:10418000570E1092560E1092550E82E59EE09093B7
:10419000450E8093440E1092420E1092430E1092E0
:1041A0003C0E89E080933F0E81E08093400E809327
:1041B000410E1092510E1092500E10923D0E109220
:1041C000330E1092320E81EA92E09093310E80937A
:1041D000300E87E28093340E84E18093380E84E0C1
:1041E0008093390E10923A0E88E080933B0E62E085
:1041F00082E00E94280362E083E00E942803EAE74D
:10420000F1E0E491F0E0EE0FFF1FE25AFE4FA591BE
:10421000B491B093250EA093240EE0ECF1E044910C
:104220004093280EEBE7F1E0E491F0E0EE0FFF1F82
:10423000E25AFE4FC591D491D093270EC093260E1B
:10424000E1ECF1E0E491E093290E10922B0E109234
:104250002C0E10922D0E10922E0E2BE33FE1C90171
:104260000197F1F79C91842F892391E009F490E064
:104270008881E82309F0926024E23EE090932A0EC0
:104280003093170E2093160E86E098E090935C0210
:1042900080935B0280916A008C7F816080936A00CA
:1042A000EC9A81E080932F0E3093190E2093180E14
:1042B0008BE098E090935E0280935D0280916A00AB
:1042C000837F846080936A00ED9A82E080932F0E52
:1042D00088EB9BE09093230E8093220EDF91CF9189
:1042E0000895789484B5826084BD84B5816084BD6E
:1042F00085B5826085BD85B5816085BD80916E0084
:10430000816080936E0010928100809181008260B4
:1043100080938100809181008160809381008091F1
:1043200080008160809380008091B10084608093E0
:10433000B1008091B00081608093B00080919100C5
:1043400082608093910080919100816080939100C0
:10435000809190008160809390008091A1008260A4
:104360008093A1008091A10081608093A100809141
:10437000A00081608093A0008091210182608093E1
:104380002101809121018160809321018091200190
:1043900081608093200180917A00846080937A000C
:1043A00080917A00826080937A0080917A008160A7
:1043B00080937A0080917A00806880937A001092CE
:1043C000C1000E94BB1888EEC82E83E0D82EE12CD5
:1043D000F12C98EB292E9BE0392E24EF822E992484
:1043E0009394A12CB12C80916C0D81110C94FF2D14
:1043F00088E00E94D30280936B0D0E948A04A7017B
:1044000096010E941F308091670D9091680DA091D8
:10441000690DB0916A0D281B390B4A0B5B0B80911B
:10442000590290915A02092E000CAA0BBB0B82175D
:104430009307A407B50740F40E948F168091580295
:10444000811102C00E94CC0A88E00E94D3028093AE
:104450006B0D90915702891781F064EA78E08DE640
:104460009DE00E942F0C4AE050E060916B0D8DE6BC
:104470009DE00E94B90A0E94350AC0916B0DC130BF
:1044800011F00C94102D80915702813079F08FEA51
:1044900098E00E94BF0AC09358021092660D82E015
:1044A00080935602C09355020E948F1604E012E0DA
:1044B0008091580290915602813009F049C692309D
:1044C00009F02CC12FEF2093650D84E680935F0DDA
:1044D0000E948A04A70196010E941F308091670DF7
:1044E0009091680DA091690DB0916A0D281B390B50
:1044F0004A0B5B0B8091590290915A02092E000CD5
:10450000AA0BBB0B82179307A407B50710F40E94F0
:104510008F160E94300C80915502813009F074C0D2
:104520008CEA92E00E94BF0A84EC98E00E94BF0AE5
:1045300060E080E00E94C9096AE778E080E39EE0DD
:104540000E942F0C60E080E00E94C9096AEE78E0CA
:1045500080E39EE00E942F0C8091660D8823A9F0D5
:1045600067EF78E080E39EE00E942F0C6091660D7B
:1045700070E06F5F7F4F80E39EE00E94850A6BE4EE
:1045800074E080E39EE00E942F0C61E080E00E94D6
:10459000C9096EE778E080E39EE00E942F0C4AE0B4
:1045A00050E060915F0D80E39EE00E94B90A69EFE0
:1045B00078E080E39EE00E942F0C8FEF90E00E9455
:1045C00064030E948A04A70196010E941F30209371
:1045D000340D3093350D4093360D5093370D60E018
:1045E00081E10E94C90964E080E39EE00E94040A20
:1045F00064E080E39EE00E94040A64E080E39EE0C1
:104600000E94040A109355020E948A04A701960191
:104610000E941F308091340D9091350DA091360D80
:10462000B091370D281B390B4A0B5B0B909151024F
:1046300080914F02989FC0011124092E000CAA0BF3
:10464000BB0B82179307A407B50700F580915502AD
:104650008230E1F460E081E10E94C9096BE878E012
:1046600080E39EE00E942F0C8BEF98E00E94BF0A2F
:1046700090E080E00E9464038091660D811156C530
:1046800083E08093560281E080935502C0915102ED
:1046900080914F02C89FE00111240E948A0420915A
:1046A000340D3091350DC20FD31FA70196010E9422
:1046B0001F30C21BD30BD093330DC093320D61E07A
:1046C00083E00E94C909C436D10534F46DE878E06E
:1046D00080E39EE00E942F0C8091320D9091330D6B
:1046E0000A9734F46DE878E080E39EE00E942F0C96
:1046F0006091320D7091330DCB010197883E93404C
:1047000008F41BC563E477E080E39EE00E942F0C71
:1047100066E473E080E39EE00E942F0C80915602D5
:10472000833009F09CC00E948A04A70196010E9470
:104730001F308091670D9091680DA091690DB09127
:104740006A0D281B390B4A0B5B0B80915902909123
:104750005A02092E000CAA0BBB0B82179307A40761
:10476000B50710F40E948F160E94300C80915502FC
:104770008130F1F58CEA92E00E94BF0A8EE199E067
:104780000E94BF0A60E080E00E94C90965E379E009
:1047900080E39EE00E942F0C61E080E00E94C90946
:1047A0006AE778E080E39EE00E942F0C61E086E0FB
:1047B0000E94FB020E948A04A70196010E941F30FA
:1047C00020932E0D30932F0D4093300D5093310DCB
:1047D00060E081E10E94C90965E080E39EE00E94FB
:1047E000040A66E080E39EE00E94040A10935502EA
:1047F0000E948A04A70196010E941F3080912E0D0D
:1048000090912F0DA091300DB091310D281B390BD7
:104810004A0B5B0B80914E0290E0B0E0A0E0821763
:104820009307A407B507D8F4809155028230B9F4F4
:1048300060E081E10E94C9096BE878E080E39EE0D6
:104840000E942F0C87E499E00E94BF0A60E086E096
:104850000E94FB020093560281E0809355028091F2
:104860005602843009F00AC260914D026093650DD2
:1048700070E090E080E00E94403123E333E343E2C4
:1048800050E40E94AA300E94123160935F0D0E9492
:104890008A04A70196010E941F308091670D9091B4
:1048A000680DA091690DB0916A0D281B390B4A0B58
:1048B0005B0B8091590290915A02092E000CAA0BB1
:1048C000BB0B82179307A407B50710F40E948F163D
:1048D0000E94300C80915502813009F07BC08CEA37
:1048E00092E00E94BF0A86E599E00E94BF0A60E05C
:1048F00080E00E94C9096BE679E080E39EE00E94B7
:104900002F0C61E080E00E94C9096DE779E080E347
:104910009EE00E942F0C61E081E10E94C909809114
:104920005F0D8A3030F46DE878E080E39EE00E940D
:104930002F0C4AE050E060915F0D80E39EE00E9402
:10494000B90A69EF78E080E39EE00E942F0C809125
:104950004D0290E00E94640360E083E10E94C90977
:1049600064E080E39EE00E94040A61E08AE00E9425
:10497000FB026CEB72E080E090E00E94590460E082
:104980008AE00E94FB0261E087E00E94FB0261E096
:1049900080E00E94C90966E879E080E39EE00E9419
:1049A0002F0C0E948A04A70196010E941F302093B9
:1049B0002A0D30932B0D40932C0D50932D0D60E05C
:1049C00082E10E94C90963E080E39EE00E94040A3C
:1049D00010935502C0915502C23009F0CCC00E941C
:1049E0008A04A70196010E941F3080912A0D9091A0
:1049F0002B0DA0912C0DB0912D0D281B390B4A0BBE
:104A00005B0B80914C0290E0B0E0A0E0821793072E
:104A1000A407B50708F04EC060E082E10E94C90912
:104A20006CE878E080E39EE00E942F0C60E087E075
:104A30000E94FB0261E080E00E94C90968E979E018
:104A400080E39EE00E942F0C61E08BE00E94FB025D
:104A50006CEB72E080E090E00E94590460E08BE033
:104A60000E94FB028DEA99E00E94BF0A8091660DC8
:104A70008F5F8093660D833008F464C38CEB99E0FC
:104A80000E94BF0AB8E0B093560281E080936C0D9B
:104A90008093380D109258020E948A04A701960153
:104AA0000E941F302093480D3093490D40934A0DCA
:104AB00050934B0D0E948A04A70196010E941F305B
:104AC00080912A0D90912B0DA0912C0DB0912D0D60
:104AD000281B390B4A0B5B0B80914C0290E0B0E035
:104AE000A0E0281739074A075B0708F044C086E3AF
:104AF0000E94D302019709F03EC08CED99E00E941C
:104B0000BF0A62E081E00E94C9090E948A04A501EF
:104B100094010E941F3061E020FD67E080E39EE089
:104B20000E94040A60E080E00E94C9096AEF79E00F
:104B300080E39EE00E942F0C61E080E00E94C909A2
:104B40006AE778E080E39EE00E942F0C83E0809388
:104B500055020E948A04A70196010E941F30CA01D3
:104B6000B9010E943E316093260D7093270D80930A
:104B7000280D9093290D80915502833009F07EC055
:104B800062E081E00E94C9090E948A04A5019401A3
:104B90000E941F3061E020FD67E080E39EE00E94FC
:104BA000040A61E081E10E94C90980915F0D8A30A9
:104BB00030F46DE878E080E39EE00E942F0C4AE03C
:104BC00050E060915F0D80E39EE00E94B90A69EFBA
:104BD00078E080E39EE00E942F0C0E948A04A701E7
:104BE00096010E941F30CA01B9010E943E312091F6
:104BF000260D3091270D4091280D5091290D0E94CE
:104C000041302B013C0160914B0270E090E080E06C
:104C10000E9440319B01AC01C301B2010E94F031FE
:104C2000181664F560E087E00E94FB0261E080E016
:104C30000E94C9096DE07AE080E39EE00E942F0C9B
:104C400061E08BE00E94FB026CEB72E080E090E0A0
:104C50000E94590460E08BE00E94FB0260E082E168
:104C60000E94C9096CE878E080E39EE00E942F0C66
:104C700085E08093560281E0809355028091560230
:104C8000853009F04EC280915502813009F0A8C0EC
:104C90008CEA92E00E94BF0A8FE19AE00E94BF0A6C
:104CA00060E080E00E94C90960E57AE080E39EE070
:104CB0000E942F0C61E080E00E94C90966E879E05B
:104CC00080E39EE00E942F0C60E087E00E94FB02E0
:104CD00080914D0290E00E9464030E948A04A70123
:104CE00096010E941F302093220D3093230D409394
:104CF000240D5093250D64E67AE08DE69DE00E9438
:104D00002F0C4091220D5091230D6091240D709134
:104D1000250D2AE08DE69DE00E943A0A0E94350AA0
:104D200060E083E10E94C90964E080E39EE00E94A4
:104D3000040A80914A028093640D6EE67AE08DE663
:104D40009DE00E942F0C4AE050E060914D028DE6FC
:104D50009DE00E94B90A6BE77AE08DE69DE00E9433
:104D60002F0C4AE050E060914A028DE69DE00E94DF
:104D7000B90A63E87AE08DE69DE00E942F0C4AE0D4
:104D800050E0609149028DE69DE00E94B90A80EAF8
:104D90009AE00E94BF0A0E948A04A70196010E941D
:104DA0001F302093220D3093230D4093240D5093F8
:104DB000250D64E67AE08DE69DE00E942F0C40917F
:104DC000220D5091230D6091240D7091250D2AE044
:104DD0008DE69DE00E943A0A0E94350A1093550222
:104DE00062E081E00E94C9090E948A04A501940141
:104DF0000E941F3061E020FD67E080E39EE00E949A
:104E0000040A0E948A04A70196010E941F30809123
:104E1000220D9091230DA091240DB091250D281BFA
:104E2000390B4A0B5B0B8091490290E0B0E0A0E0A7
:104E3000281739074A075B0708F027C180915502F8
:104E4000823009F022C18091650D9091640D89171F
:104E500008F01BC18B5F8093650D60914A028091C1
:104E60004D02681B770B072E000C880B990B0E94D4
:104E700040316093600D7093610D8093620D90934B
:104E8000630D6BE87AE08DE69DE00E942F0C409167
:104E9000600D5091610D6091620D7091630D22E083
:104EA0008DE69DE00E944C0B8BE99AE00E94BF0AC0
:104EB0006091490270E090E080E00E9440312091D2
:104EC000600D3091610D4091620D5091630D0E9413
:104ED000AA306093600D7093610D8093620D909382
:104EE000630D6BE87AE08DE69DE00E942F0C409107
:104EF000600D5091610D6091620D7091630D22E023
:104F00008DE69DE00E944C0B80EA9AE00E94BF0A69
:104F100020E030E04AE754E46091600D7091610D4B
:104F20008091620D9091630D0E94F43120E030E099
:104F300040E650E40E94F4316093600D7093610D7F
:104F40008093620D9093630D6BE87AE08DE69DE0AF
:104F50000E942F0C4091600D5091610D6091620D87
:104F60007091630D22E08DE69DE00E944C0B8FE96D
:104F70009AE00E94BF0A6091600D7091610D80916E
:104F8000620D9091630D0E9412310E945904C091EC
:104F9000650DD0E0BE010D2E000C880B990B0E9410
:104FA000403123E333E343E250E40E94AA300E94FD
:104FB000123160935F0DCE010E94640363EA7AE0D0
:104FC0008DE69DE00E942F0C4AE050E06091650D57
:104FD0008DE69DE00E94B90A63E87AE08DE69DE0E7
:104FE0000E942F0C4AE050E060915F0D8DE69DE03D
:104FF0000E94B90A8BEB9AE00E94BF0A6EEB7AE03E
:105000008DE69DE00E942F0C8091640D90914D02E1
:10501000891B990B6091490270E00E945B32CB01C1
:105020006AE070E00E945B328DE69DE00E94850A96
:1050300080ED9AE00E94BF0A6BE87AE08DE69DE081
:105040000E942F0C4091600D5091610D6091620D96
:105050007091630D22E08DE69DE00E944C0B8FE97C
:105060009AE00E94BF0A61E081E10E94C9094AE01A
:1050700050E060915F0D80E39EE00E94B90A69EF05
:1050800078E080E39EE00E942F0C0E948A04A70132
:105090009601D5D78091220D9091230DA091240DDA
:1050A000B091250D281B390B4A0B5B0B80914902EF
:1050B00090E0B0E0A0E082179307A407B50788F559
:1050C00080915502823069F58091650D90E00E94D3
:1050D000640388ED9AE00E94BF0A60E082E10E94CA
:1050E000C90964E080E39EE00E94040A64E080E372
:1050F0009EE00E94040A62E081E00E94C9096DE816
:1051000078E080E39EE00E942F0C86E080935602B8
:105110001092580281E08093550280914A02809358
:10512000650D62E081E00E94C909C2C98FE099E083
:105130000E94BF0A00935602A6CA80E39EE00E9426
:10514000850AE6CAC093560281E080935502B2CC2C
:10515000963009F0ACC1811172C38091650D9091B8
:10516000640D891718F48B5F8093650D8091650D30
:10517000981718F485508093650D80E090E0AAEFB1
:10518000B3E48093600D9093610DA093620DB09392
:10519000630D64EF71E080E090E00E945904C091DB
:1051A000650DD0E0BE010D2E000C880B990B0E94FE
:1051B000403123E333E343E250E4CCD70E94123181
:1051C000162F60935F0DCE010E94640361E081E1C0
:1051D0000E94C9094AE050E0612F80E39EE00E94EE
:1051E000B90A69EF78E080E39EE00E942F0C60E04E
:1051F00080E00E94C90963EF7AE080E39EE00E94AC
:105200002F0C80915502813009F064C084E09BE04E
:105210000E94BF0AC091650DD0E0CE010E946403D8
:1052200060E082E10E94C90964E080E39EE00E94A0
:10523000040A64E080E39EE00E94040ABE01DD0FE0
:10524000880B990B0E94403123E333E343E250E49F
:1052500081D7E8D7C62F60935F0D61E081E10E949E
:10526000C9094AE050E06C2F80E39EE00E94B90A31
:1052700069EF78E080E39EE00E942F0C61E086E019
:105280000E94FB020E948A04A7019601D8D62093AF
:105290005B0D30935C0D40935D0D50935E0D61E0AE
:1052A00080E00E94C9096BE778E080E39EE00E94FD
:1052B0002F0C60E080E10E94C90965E080E39EE078
:1052C0000E94040A66E080E39EE00E94040A82E0F5
:1052D0008093550280915502823009F070C0C091D0
:1052E000650DD0E0CE010E94640360E082E10E947F
:1052F000C90964E080E39EE00E94040A64E080E360
:105300009EE00E94040ABE01DD0F880B990BB8D7FE
:1053100023E333E343E250E41DD784D7C62F6093E1
:105320005F0D61E081E10E94C9094AE050E06C2F05
:1053300080E39EE00E94B90A69EF78E080E39EE096
:105340000E942F0C0E948A04A701960178D68091B2
:105350005B0D90915C0DA0915D0DB0915E0D281BD1
:10536000390B4A0B5B0B8091540290E0B0E0A0E057
:1053700082179307A407B50710F560E086E00E9446
:10538000FB0260E080E10E94C9096CE878E080E3FC
:105390009EE00E942F0C0E948A04A70196014FD61E
:1053A0002093570D3093580D4093590D50935A0D3B
:1053B00083E08093550281E29BE00E94BF0A0E9435
:1053C0008A04A70196013BD68091670D9091680DE4
:1053D000A091690DB0916A0D281B390B4A0B5B0B2C
:1053E0008091590290915A02092E000CAA0BBB0B16
:1053F00082179307A407B50720F40E948F160E9416
:10540000CC0A80915502833009F051C0C091650DDE
:10541000D0E0CE010E94640360E082E10E94C909ED
:1054200064E080E39EE00E94040A64E080E39EE082
:105430000E94040ABE01DD0F880B990B21D723E3DC
:1054400033E343E250E486D6EDD6C62F60935F0D7A
:1054500061E081E10E94C9094AE050E06C2F80E3DD
:105460009EE00E94B90A69EF78E080E39EE00E9426
:105470002F0C0E948A04A7019601E1D58091570D57
:105480009091580DA091590DB0915A0D281B390BD0
:105490004A0B5B0B8091530290E0B0E0A0E08217D2
:1054A0009307A407B50718F481E080935502809113
:1054B0005602873009F0C3C1809158028111BFC1E3
:1054C0008091650D9091640D981718F48550809324
:1054D000650D8091650D891718F48B5F8093650DBC
:1054E00080E090E0AAEFB3E48093600D9093610DAB
:1054F000A093620DB093630D64EF71E080E090E0E3
:105500000E945904C091650DD0E0CE010E94640351
:10551000BE01DD0F880B990BB3D623E333E343E2DF
:1055200050E418D67FD6C62F60935F0D61E081E10D
:105530000E94C9094AE050E06C2F80E39EE00E947F
:10554000B90A69EF78E080E39EE00E942F0C60E0EA
:1055500080E00E94C9096FE27BE080E39EE00E9448
:105560002F0C80915502813009F068C080E49BE0E7
:105570000E94BF0A8091650D90E00E94640360E084
:1055800082E10E94C9096DE878E080E39EE00E9414
:105590002F0C60E083E10E94C90964E080E39EE093
:1055A0000E94040A6091650D70E090E080E068D68A
:1055B00023E333E343E250E4CDD534D6C62F6093E2
:1055C0005F0D61E081E10E94C9094AE050E06C2F63
:1055D00080E39EE00E94B90A69EF78E080E39EE0F4
:1055E0000E942F0C61E086E00E94FB020E948A0468
:1055F000A701960124D52093530D3093540D409369
:10560000550D5093560D61E080E00E94C9096DE789
:1056100078E080E39EE00E942F0C60E080E10E9431
:10562000C90965E080E39EE00E94040A66E080E329
:105630009EE00E94040A82E0809355028091550208
:10564000823009F079C08091650D90E00E9464037A
:1056500060E082E10E94C9096DE878E080E39EE0A5
:105660000E942F0C60E083E10E94C90964E080E39E
:105670009EE00E94040A6091650D70E090E080E079
:10568000FFD523E333E343E250E464D5CBD5C62F03
:1056900060935F0D61E081E10E94C9094AE050E03A
:1056A0006C2F80E39EE00E94B90A69EF78E080E306
:1056B0009EE00E942F0C0E948A04A7019601BFD48D
:1056C0008091530D9091540DA091550DB091560DB0
:1056D000281B390B4A0B5B0B8091520290E0B0E023
:1056E000A0E082179307A407B50730F583E59BE098
:1056F0000E94BF0A60E086E00E94FB0260E080E159
:105700000E94C9096CE878E080E39EE00E942F0CBB
:105710000E948A04A701960192D42093570D3093DA
:10572000580D4093590D50935A0D83E080935502C4
:1057300080E79BE00E94BF0A0E948A04A7019601AD
:105740007ED48091670D9091680DA091690DB09104
:105750006A0D281B390B4A0B5B0B80915902909103
:105760005A02092E000CAA0BBB0B82179307A40741
:10577000B50720F40E948F160E94CC0A8091550232
:10578000833009F0C5C08091650D90E00E946403EC
:1057900060E082E10E94C9096DE878E080E39EE064
:1057A0000E942F0C60E083E10E94C90964E080E35D
:1057B0009EE00E94040A6091650D70E090E080E038
:1057C0005FD523E333E343E250E4C4D42BD5C62FA3
:1057D00060935F0D61E081E10E94C9094AE050E0F9
:1057E0006C2F80E39EE00E94B90A69EF78E080E3C5
:1057F0009EE00E942F0C0E948A04A70196011FD4EC
:105800008091570D9091580DA091590DB0915A0D5E
:10581000281B390B4A0B5B0B90915102809150026F
:10582000989FC0011124092E000CAA0BBB0B8217F4
:105830009307A407B50718F481E08093550280917F
:105840005502833009F064C080915602C091530222
:10585000D0E0863049F08730C1F4C0915102809188
:105860005002C89FE00111240E948A042091570D24
:105870003091580DC20FD31FA7019601E0D3C21B70
:10588000D30BD093520DC093510D61E080E00E9484
:10589000C90965E080E39EE00E94040A66E080E3B7
:1058A0009EE00E94040A68EB7AE080E39EE00E949A
:1058B0002F0C8091510D9091520D8436910534F446
:1058C0006DE878E080E39EE00E942F0C8091510DFE
:1058D0009091520D0A9734F46DE878E080E39EE0F1
:1058E0000E942F0C6091510D7091520DCB010197C8
:1058F000883E934008F423C363E477E080E39EE0AE
:105900000E942F0C6EE77BE080E39EE00E942F0C4C
:1059100080915502823009F07FC080915602863016
:1059200009F012C340905402512C712C612C0E943A
:105930008A0400915B0D10915C0D20915D0D3091FA
:105940005E0D400E511E621E731EA701960177D395
:10595000421A530A640A750A40924D0D50924E0D38
:1059600060924F0D7092500D61E080E00E94C90975
:1059700065E080E39EE00E94040A66E080E39EE02A
:105980000E94040A68EB7AE080E39EE00E942F0CFC
:1059900080914D0D90914E0DA0914F0DB091500DF5
:1059A00084369105A105B10530F46DE878E080E317
:1059B0009EE00E942F0C80914D0D90914E0DA09174
:1059C0004F0DB091500D0A97A105B10530F46DE867
:1059D00078E080E39EE00E942F0C40914D0D5091A5
:1059E0004E0D60914F0D7091500DDB01CA01019772
:1059F000A109B109883E9340A105B10508F4B7C2D9
:105A000063E477E080E39EE00E942F0C68E87BE08F
:105A100080E39EE00E942F0C8091560280934C0DF3
:105A200080916B0D811169C0809157028823B9F074
:105A30000E94FA098CEA92E00E94BF0A82E99BE088
:105A40000E94BF0A0E948A04A7019601F8D22093FF
:105A5000480D3093490D40934A0D50934B0D60E033
:105A600080E00E94C90968E97BE080E39EE00E9433
:105A70002F0C60E087E00E94FB0260E086E00E945D
:105A8000FB0281E08093580292E09093560280934B
:105A900055020E948A04A7019601D1D28091480D37
:105AA0009091490DA0914A0DB0914B0D281B390BD7
:105AB0004A0B5B0B9091510280914F02989FC0015D
:105AC0001124092E000CAA0BBB0B82179307A40705
:105AD000B50708F052C287EA9BE00E94BF0A90E037
